:08035600021A0007021C00005E
:10033100759850758920E4F587758DFD758BFDD213
:060341008ED2ACD2AF2207
:0F03470012033112012A7FE87E0312000F80F4A7
:030023000202CD09
:1002CD00C0E0C0F0C083C082C0D075D000C000C0F7
:0D02DD0001C002C003C004C005C006C00778
:1002EA00C2AF30980DC298AF997B007A00791A1282
:0402FA000244D2AF39
:1002FE00D007D006D005D004D003D002D001D00054
:0B030E00D0D0D082D083D0F0D0E032FD
:060244008B138A148915DA
:10024A00E4F516F517F518F519EF24FE601624FBE8
:10025A00601A14602314603E2408703C75180075F7
:10026A00196480347518017519F4802CAB13AA141B
:10027A00A915E475F001800AAB13AA14A91574FF35
:10028A00F5F0120087AB13AA14A91512005CFFAE91
:10029A00F012035F8002B2A2E4F516F517C3E51760
:1002AA009519E5186480F8E5166480985014C2A080
:1002BA00120003D2A01200030517E51770DF051616
:0202CA0080DBD7
:0102CC00220F
:0C000300AB13AA14A91512005CFFAEF0AC
:10000F00EF4E600C007D2BDDFEEF1F70F31E80F0B6
:01001F0022BE
:08035F008F993099FDC299222B
:06012A007B007A00791A47
:060130008B0F8A108911FB
:1001360020B10C12031930B1FD12031975120920F2
:10014600B00C12031930B0FD12031975120120B25A
:100156000C12031930B2FD1203197512027B007AD4
:1001660000791AAF12120244E4F51220B3437F1449
:10017600FE12031D30B3FD120319E51D2401FFE431
:10018600351CFE7C007D021200268C1C8D1DE51D93
:100196006401451C701BC2A0AB0FAA10A911120066
:1001A60009D2A0AB0FAA10A91112000912012A80C8
:0101B600DD6B
:0101B7002225
:040319007F147E00CF
:10031D00EF4E600F7D027CEFDCFEDDFCEF1F70F019
:03032D001E80ED42
:0103300022AA
:030000000201B842
:0C01B800787FE4F6D8FD75811D0201FF80
:10002600C2D5EC30E709B2D5E4C39DFDE49CFCEEF5
:1000360030E715B2D5E4C39FFFE49EFE1200BFC3AE
:10004600E49DFDE49CFC80031200BF30D507C3E4A9
:060056009FFFE49EFE2264
:10005C00BB010A89828A83E0F5F0A3E0225006876F
:10006C00F009E71922BBFE07E3F5F009E319228931
:0B007C00828A83E493F5F07401932264
:10008700BB010789828A83020114500B09C5F02737
:10009700F7C5F01937F722BBFE0D09F8E325F0F392
:1000A700C5F019E338F322F889828A83740193250E
:0800B700F0C5F0F8E4933822D3
:1001C400020347E493A3F8E493A34003F68001F207
:1001D40008DFF48029E493A3F85407240CC8C3333C
:1001E400C4540F4420C8834004F456800146F6DF0B
:1001F400E4800B0102040810204080900356E47E42
:10020400019360BCA3FF543F30E509541FFEE493FF
:10021400A360010ECF54C025E060A840B8E493A3C6
:10022400FAE493A3F8E493A3C8C582C8CAC583CAF1
:10023400F0A3C8C582C8CAC583CADFE9DEE780BEA9
:01035E00009E
:1000BF00BC000BBE0029EF8DF084FFADF022E4CC25
:1000CF00F875F008EF2FFFEE33FEEC33FCEE9DECEE
:1000DF00984005FCEE9DFE0FD5F0E9E4CEFD22ED34
:1000EF00F8F5F0EE8420D21CFEADF075F008EF2F7E
:1000FF00FFED33FD4007985006D5F0F222C398FD6F
:05010F000FD5F0EA220B
:10011400C5F0F8A3E028F0C5F0F8E5821582700276
:060124001583E038F02213
:00000001FF
