:10000300E4F508F50920B1137F147E001200CA300D
:10001300B1FD7F147E001200CAB2A220B0337F1458
:100023007E001200CA30B0FD7F147E001200CAE4C5
:10003300F508F509C2A01200EAD2A01200EA0509E8
:10004300E50970020508C39464E508648094804060
:10005300E320B2337F147E001200CA30B2FD7F1456
:100063007E001200CAE4F508F509C2A01200EAD224
:10007300A01200EA0509E50970020508C394F4E536
:10008300086480948140E330B3030200087F147E48
:10009300001200CA30B3FD7F147E001200CAE4F5DB
:1000A30008F509C3E50994B8E5086480948B400317
:1000B300020008C2A01200EAD2A01200EA0509E574
:0700C3000970E0050880DC74
:1000CA00EF4E600F7D027CEFDCFEDDFCEF1F70F06F
:0300DA001E80ED98
:0100DD002200
:0500EA00007FF7DFFEBE
:0100EF0022EE
:030000000200DE1D
:0C00DE00787FE4F6D8FD7581090200036C
:00000001FF
