:10000300E4F508F50920B10B1200A730B1FD120089
:10001300A7B2A220B02B1200A730B0FD1200A7E4B4
:10002300F508F509C2A01200CBD2A01200CB050936
:10003300E50970020508C39464E508648094804070
:10004300E320B22B1200A730B2FD1200A7E4F5089B
:10005300F509C2A01200CBD2A01200CB0509E50915
:1000630070020508C394F4E5086480948140E3209A
:10007300B3931200A730B3FD1200A7E4F508F50906
:10008300C3E50994B8E5086480948B400302000833
:10009300C2A01200CBD2A01200CB0509E50970E083
:0400A300050880DCF0
:0400A7007F147E0044
:1000AB00EF4E600F7D027CEFDCFEDDFCEF1F70F08E
:0300BB001E80EDB7
:0100BE00221F
:0500CB00007FF7DFFEDD
:0100D000220D
:030000000200BF3C
:0C00BF00787FE4F6D8FD7581090200038B
:00000001FF
